{
    "_format": "hh-sol-artifact-1",
    "contractName": "BuyItem",
    "sourceName": "contracts/BuyItem.sol",
    "abi": [
        {
            "inputs": [
                {
                    "internalType": "uint256",
                    "name": "",
                    "type": "uint256"
                }
            ],
            "name": "BoughtProducts",
            "outputs": [
                {
                    "internalType": "string",
                    "name": "name",
                    "type": "string"
                },
                {
                    "internalType": "uint256",
                    "name": "value",
                    "type": "uint256"
                },
                {
                    "internalType": "address payable",
                    "name": "receiver",
                    "type": "address"
                }
            ],
            "stateMutability": "view",
            "type": "function"
        },
        {
            "inputs": [
                {
                    "internalType": "string",
                    "name": "_name",
                    "type": "string"
                },
                {
                    "internalType": "uint256",
                    "name": "_value",
                    "type": "uint256"
                },
                {
                    "internalType": "address payable",
                    "name": "_receiver",
                    "type": "address"
                }
            ],
            "name": "addProduct",
            "outputs": [],
            "stateMutability": "nonpayable",
            "type": "function"
        },
        {
            "inputs": [],
            "name": "allProducts",
            "outputs": [
                {
                    "components": [
                        {
                            "internalType": "string",
                            "name": "name",
                            "type": "string"
                        },
                        {
                            "internalType": "uint256",
                            "name": "value",
                            "type": "uint256"
                        },
                        {
                            "internalType": "address payable",
                            "name": "receiver",
                            "type": "address"
                        }
                    ],
                    "internalType": "struct BuyItem.ProductStruct[]",
                    "name": "",
                    "type": "tuple[]"
                }
            ],
            "stateMutability": "view",
            "type": "function"
        },
        {
            "inputs": [
                {
                    "internalType": "uint256",
                    "name": "_productId",
                    "type": "uint256"
                }
            ],
            "name": "buyProduct",
            "outputs": [
                {
                    "internalType": "string",
                    "name": "",
                    "type": "string"
                }
            ],
            "stateMutability": "payable",
            "type": "function"
        }
    ],
    "bytecode": "0x608060405234801561001057600080fd5b50610b62806100206000396000f3fe60806040526004361061003f5760003560e01c80631958a23a146100445780638642269e1461008357806391295241146100b3578063a8ff20f9146100de575b600080fd5b34801561005057600080fd5b5061006b60048036038101906100669190610686565b610107565b60405161007a939291906108ba565b60405180910390f35b61009d60048036038101906100989190610686565b6101e9565b6040516100aa9190610898565b60405180910390f35b3480156100bf57600080fd5b506100c86102c8565b6040516100d59190610876565b60405180910390f35b3480156100ea57600080fd5b506101056004803603810190610100919061061f565b610419565b005b6000818154811061011757600080fd5b906000526020600020906003020160009150905080600001805461013a90610a5d565b80601f016020809104026020016040519081016040528092919081815260200182805461016690610a5d565b80156101b35780601f10610188576101008083540402835291602001916101b3565b820191906000526020600020905b81548152906001019060200180831161019657829003601f168201915b5050505050908060010154908060020160009054906101000a900473ffffffffffffffffffffffffffffffffffffffff16905083565b6060600082116101f857600080fd5b6000808381548110610233577f4e487b7100000000000000000000000000000000000000000000000000000000600052603260045260246000fd5b90600052602060002090600302019050806001015434101561028a576040517f08c379a0000000000000000000000000000000000000000000000000000000008152600401610281906108f8565b60405180910390fd5b6040518060400160405280600781526020017f5375636365737300000000000000000000000000000000000000000000000000815250915050919050565b60606000805480602002602001604051908101604052809291908181526020016000905b82821015610410578382906000526020600020906003020160405180606001604052908160008201805461031f90610a5d565b80601f016020809104026020016040519081016040528092919081815260200182805461034b90610a5d565b80156103985780601f1061036d57610100808354040283529160200191610398565b820191906000526020600020905b81548152906001019060200180831161037b57829003601f168201915b50505050508152602001600182015481526020016002820160009054906101000a900473ffffffffffffffffffffffffffffffffffffffff1673ffffffffffffffffffffffffffffffffffffffff1673ffffffffffffffffffffffffffffffffffffffff1681525050815260200190600101906102ec565b50505050905090565b600060405180606001604052808581526020018481526020018373ffffffffffffffffffffffffffffffffffffffff16815250908060018154018082558091505060019003906000526020600020906003020160009091909190915060008201518160000190805190602001906104919291906104ea565b506020820151816001015560408201518160020160006101000a81548173ffffffffffffffffffffffffffffffffffffffff021916908373ffffffffffffffffffffffffffffffffffffffff1602179055505050505050565b8280546104f690610a5d565b90600052602060002090601f016020900481019282610518576000855561055f565b82601f1061053157805160ff191683800117855561055f565b8280016001018555821561055f579182015b8281111561055e578251825591602001919060010190610543565b5b50905061056c9190610570565b5090565b5b80821115610589576000816000905550600101610571565b5090565b60006105a061059b84610949565b610918565b9050828152602081018484840111156105b857600080fd5b6105c3848285610a1b565b509392505050565b6000813590506105da81610afe565b92915050565b600082601f8301126105f157600080fd5b813561060184826020860161058d565b91505092915050565b60008135905061061981610b15565b92915050565b60008060006060848603121561063457600080fd5b600084013567ffffffffffffffff81111561064e57600080fd5b61065a868287016105e0565b935050602061066b8682870161060a565b925050604061067c868287016105cb565b9150509250925092565b60006020828403121561069857600080fd5b60006106a68482850161060a565b91505092915050565b60006106bb8383610808565b905092915050565b6106cc816109df565b82525050565b6106db816109df565b82525050565b60006106ec82610989565b6106f681856109ac565b93508360208202850161070885610979565b8060005b85811015610744578484038952815161072585826106af565b94506107308361099f565b925060208a0199505060018101905061070c565b50829750879550505050505092915050565b600061076182610994565b61076b81856109bd565b935061077b818560208601610a2a565b61078481610aed565b840191505092915050565b600061079a82610994565b6107a481856109ce565b93506107b4818560208601610a2a565b6107bd81610aed565b840191505092915050565b60006107d56012836109ce565b91507f496e73756666696369656e742066756e647300000000000000000000000000006000830152602082019050919050565b600060608301600083015184820360008601526108258282610756565b915050602083015161083a6020860182610858565b50604083015161084d60408601826106c3565b508091505092915050565b61086181610a11565b82525050565b61087081610a11565b82525050565b6000602082019050818103600083015261089081846106e1565b905092915050565b600060208201905081810360008301526108b2818461078f565b905092915050565b600060608201905081810360008301526108d4818661078f565b90506108e36020830185610867565b6108f060408301846106d2565b949350505050565b60006020820190508181036000830152610911816107c8565b9050919050565b6000604051905081810181811067ffffffffffffffff8211171561093f5761093e610abe565b5b8060405250919050565b600067ffffffffffffffff82111561096457610963610abe565b5b601f19601f8301169050602081019050919050565b6000819050602082019050919050565b600081519050919050565b600081519050919050565b6000602082019050919050565b600082825260208201905092915050565b600082825260208201905092915050565b600082825260208201905092915050565b60006109ea826109f1565b9050919050565b600073ffffffffffffffffffffffffffffffffffffffff82169050919050565b6000819050919050565b82818337600083830152505050565b60005b83811015610a48578082015181840152602081019050610a2d565b83811115610a57576000848401525b50505050565b60006002820490506001821680610a7557607f821691505b60208210811415610a8957610a88610a8f565b5b50919050565b7f4e487b7100000000000000000000000000000000000000000000000000000000600052602260045260246000fd5b7f4e487b7100000000000000000000000000000000000000000000000000000000600052604160045260246000fd5b6000601f19601f8301169050919050565b610b07816109df565b8114610b1257600080fd5b50565b610b1e81610a11565b8114610b2957600080fd5b5056fea2646970667358221220490f107e186dfc5098525fc6df6f0572a4b7c80798dae3b85fce22787ec1aa3464736f6c63430008000033",
    "linkReferences": {},
    "deployedLinkReferences": {}
}